:020000040000fa
:080000000002040000000000f2
:020000040000fa
:04000800d40200001e
:020000040000fa
:04000c00d40200001a
:020000040000fa
:04001000d402000016
:020000040000fa
:04001400d402000012
:020000040000fa
:04001800d40200000e
:020000040000fa
:04001c00d40200000a
:020000040000fa
:04002000d402000006
:020000040000fa
:04002400d402000002
:020000040000fa
:04002800d4020000fe
:020000040000fa
:04002c00d4020000fa
:020000040000fa
:04003000d4020000f6
:020000040000fa
:04003400d4020000f2
:020000040000fa
:04003800d4020000ee
:020000040000fa
:04003c00d4020000ea
:020000040000fa
:04004000d4020000e6
:020000040000fa
:04004400c8020000ee
:020000040000fa
:04004800d4020000de
:020000040000fa
:04004c00d4020000da
:020000040000fa
:04005000d4020000d6
:020000040000fa
:04005400d4020000d2
:020000040000fa
:04005800d4020000ce
:020000040000fa
:04005c00d4020000ca
:020000040000fa
:04006000d4020000c6
:020000040000fa
:04006400d4020000c2
:020000040000fa
:04006800d4020000be
:020000040000fa
:04006c00d4020000ba
:020000040000fa
:04007000d4020000b6
:020000040000fa
:04007400d4020000b2
:020000040000fa
:04007800d4020000ae
:020000040000fa
:04007c00d4020000aa
:020000040000fa
:04008000d4020000a6
:020000040000fa
:04008400d4020000a2
:020000040000fa
:04008800d40200009e
:020000040000fa
:04008c00d40200009a
:020000040000fa
:04009000d402000096
:020000040000fa
:04009400d402000092
:020000040000fa
:04009800d40200008e
:020000040000fa
:04009c00d40200008a
:020000040000fa
:0400a000d402000086
:020000040000fa
:0400a400d402000082
:020000040000fa
:0400a800d40200007e
:020000040000fa
:0400ac00d40200007a
:020000040000fa
:0400b000d402000076
:020000040000fa
:0400b400d402000072
:020000040000fa
:0400b800d40200006e
:020000040000fa
:0400bc00d40200006a
:020000040000fa
:0400c000d402000066
:020000040000fa
:0400c400d402000062
:020000040000fa
:0400c800d40200005e
:020000040000fa
:0400cc00d40200005a
:020000040000fa
:0400d000d402000056
:020000040000fa
:0400d400d402000052
:020000040000fa
:0400d800d40200004e
:020000040000fa
:0400dc00d40200004a
:020000040000fa
:0400e000d402000046
:020000040000fa
:0400e400d402000042
:020000040000fa
:0400e800d40200003e
:020000040000fa
:0400ec00d40200003a
:020000040000fa
:0400f000d402000036
:020000040000fa
:0400f400d402000032
:020000040000fa
:0400f800d40200002e
:020000040000fa
:0400fc00d40200002a
:020000040000fa
:04010000d402000025
:020000040000fa
:04010400d402000021
:020000040000fa
:04010800d40200001d
:020000040000fa
:04010c00d402000019
:020000040000fa
:04011000d402000015
:020000040000fa
:04011400d402000011
:020000040000fa
:04011800d40200000d
:020000040000fa
:04011c00d402000009
:020000040000fa
:04012000d402000005
:020000040000fa
:04012400d402000001
:020000040000fa
:04012800d4020000fd
:020000040000fa
:04012c00d4020000f9
:020000040000fa
:04013000d4020000f5
:020000040000fa
:04013400d4020000f1
:020000040000fa
:04013800d4020000ed
:020000040000fa
:04013c00d4020000e9
:020000040000fa
:04014000d4020000e5
:020000040000fa
:04014400d4020000e1
:020000040000fa
:04014800d4020000dd
:020000040000fa
:04014c00d4020000d9
:020000040000fa
:04015000d4020000d5
:020000040000fa
:04015400d4020000d1
:020000040000fa
:04015800d4020000cd
:020000040000fa
:04015c00d4020000c9
:020000040000fa
:04020800d40200001c
:020000040000fa
:04020c00d402000018
:020000040000fa
:04021000d402000014
:020000040000fa
:04021400d402000010
:020000040000fa
:04021800d40200000c
:020000040000fa
:04021c00d402000008
:020000040000fa
:04022000d402000004
:020000040000fa
:04022400d402000000
:020000040000fa
:04022800d4020000fc
:020000040000fa
:04022c00d4020000f8
:020000040000fa
:04023000d4020000f4
:020000040000fa
:04023400d4020000f0
:020000040000fa
:04023800d4020000ec
:020000040000fa
:04023c00d4020000e8
:020000040000fa
:04024000d4020000e4
:020000040000fa
:04024400c8020000ec
:020000040000fa
:04024800d4020000dc
:020000040000fa
:04024c00d4020000d8
:020000040000fa
:04025000d4020000d4
:020000040000fa
:04025400d4020000d0
:020000040000fa
:04025800d4020000cc
:020000040000fa
:04025c00d4020000c8
:020000040000fa
:04026000d4020000c4
:020000040000fa
:04026400d4020000c0
:020000040000fa
:04026800d4020000bc
:020000040000fa
:04026c00d4020000b8
:020000040000fa
:04027000d4020000b4
:020000040000fa
:04027400d4020000b0
:020000040000fa
:04027800d4020000ac
:020000040000fa
:04027c00d4020000a8
:020000040000fa
:04028000d4020000a4
:020000040000fa
:04028400d4020000a0
:020000040000fa
:04028800d40200009c
:020000040000fa
:04028c00d402000098
:020000040000fa
:04029000d402000094
:020000040000fa
:04029400d402000090
:020000040000fa
:04029800d40200008c
:020000040000fa
:04029c00d402000088
:020000040000fa
:0402a000d402000084
:020000040000fa
:0402a400d402000080
:020000040000fa
:0402a800d40200007c
:020000040000fa
:0402ac00d402000078
:020000040000fa
:0402b000d402000074
:020000040000fa
:0402b400d402000070
:020000040000fa
:0402b800d40200006c
:020000040000fa
:0402bc00d402000068
:020000040000fa
:0402c000d402000064
:020000040000fa
:0402c400d402000060
:020000040000fa
:0402c800d40200005c
:020000040000fa
:0402cc00d402000058
:020000040000fa
:0402d000d402000054
:020000040000fa
:0402d400d402000050
:020000040000fa
:0402d800d40200004c
:020000040000fa
:0402dc00d402000048
:020000040000fa
:0402e000d402000044
:020000040000fa
:0402e400d402000040
:020000040000fa
:0402e800d40200003c
:020000040000fa
:0402ec00d402000038
:020000040000fa
:0402f000d402000034
:020000040000fa
:0402f400d402000030
:020000040000fa
:0402f800d40200002c
:020000040000fa
:0402fc00d402000028
:020000040000fa
:04030000d402000023
:020000040000fa
:04030400d40200001f
:020000040000fa
:04030800d40200001b
:020000040000fa
:04030c00d402000017
:020000040000fa
:04031000d402000013
:020000040000fa
:04031400d40200000f
:020000040000fa
:04031800d40200000b
:020000040000fa
:04031c00d402000007
:020000040000fa
:04032000d402000003
:020000040000fa
:04032400d4020000ff
:020000040000fa
:04032800d4020000fb
:020000040000fa
:04032c00d4020000f7
:020000040000fa
:04033000d4020000f3
:020000040000fa
:04033400d4020000ef
:020000040000fa
:04033800d4020000eb
:020000040000fa
:04033c00d4020000e7
:020000040000fa
:04034000d4020000e3
:020000040000fa
:04034400d4020000df
:020000040000fa
:04034800d4020000db
:020000040000fa
:04034c00d4020000d7
:020000040000fa
:04035000d4020000d3
:020000040000fa
:04035400d4020000cf
:020000040000fa
:04035800d4020000cb
:020000040000fa
:04035c00d4020000c7
:020000040000fa
:100400000f8020000edf20000e0188000000000099
:10041000000020000000e000020032000001200087
:100420002002880014000700610007000000e000bf
:1004300003003a0000002000010020000200370005
:100440000000200001002000810f70000100320038
:1004500014000700000020000000e000020032004d
:1004600000000200000000002c0502000000000057
:100470000040da000000fe004440a9000000200017
:100480000000e0000300320000002000a00188000e
:100490004440a800000006008a1f78008b1f7800e7
:1004a0000000060091018800800478000000eb0045
:1004b0001a003700e284440032a0b4009905ba0063
:1004c000e284440032a0b4009906ba00e2844400f9
:1004d00032a0b4000006eb00476fde00fd07b2005b
:1004e000636ce10003003a00ebff07000000eb0043
:1004f0000a003700606ce10004003a00005deb0088
:100500008b05e900fdff3e00040037006168e10053
:10051000010032000086eb000b00070019c7ba008b
:100520001905ba000e04e00003003a000a00e000da
:10053000e0ff3a0000000600fe07b2009e018800be
:100540008a047800f5ff3700395dba008b05e900b1
:100550000c003200295dba008b05e900080032006a
:100560000c00e00003003a00e284440032a0b40032
:10057000f5ff370019ddba008b05e900faff3a00f4
:100580008904e800e184440032a0b40000000600c1
:100590000000fa0084e0a9000621ef0011e1a900a3
:1005a0000080fa00004006000040da000000fe0073
:0405b0000000050042
:020000040000fa
:1005b4000000fa00c9e2a9004fe7a8004fa7a9006c
:1005c4004f87a900713a8000f00f2f00008060006f
:1005d400703a88000080eb00601988006800a80069
:1005e4006820a8006bc0a800c042a800c082a80070
:1005f400c882a800c902a9000080fa000000060011
:100604000000fa0010168000640060000000e000a2
:1006140017003a0010168000700060000000e0002f
:100624001300320050168000700060000000e000eb
:100634000f003200803e2000d100070060168000c9
:100644004800de00614060000004a20061406000d8
:100654000080fb00610060004800dd00611680003e
:100664000180a10001007000601688008800370036
:1006740010168000640060000000e00017003200e3
:1006840010168000700060000000e00013003a00c3
:1006940050168000700060000000e0000f0032007f
:1006a400007d2000b6000700601680004800de00d0
:1006b400614060000004a200614060000080fb0013
:1006c400610060004800dd00611680000180a10027
:1006d40001007000601688006d003700101680005d
:1006e400640060000000e000170032001016800073
:1006f400700060000000e00013003200501680001b
:10070400700060000000e0000f003a0080bb200091
:100714009b000700601680004800de006140600016
:100724000004a200614060000080fb0061006000e2
:100734004800dd00611680000180a1000100700006
:1007440060168800520037001016800064006000b4
:100754000000e0000a003a001016800070006000fb
:100764000000e000060032005016800070006000b7
:100774000000e00002003a00cd02a8004400370067
:1007840010168000640060000000e0000a003200df
:1007940010168000700060000000e00006003a00bf
:1007a40050168000700060000000e00002003a0073
:1007b400cd02a800360037001016800064006000e7
:1007c4000000e00017003a0010168000700060007e
:1007d4000000e00013003a00501680007000600032
:1007e4000000e0000f003200100020006400070049
:1007f400601680004800de00614060000004a20032
:10080400614060000080fb00610060004800dd0082
:10081400611680000180a10001007000601688004c
:100824001b00370010168000640060000000e00028
:100834000a003a0010168000700060000000e0001a
:1008440006003a0050168000700060000000e000ce
:1008540002003a00cd02a8000d00370010168000f7
:10086400640060000000e0000900320010168000ff
:10087400700060000000e0000500320050168000a7
:10088400700060000000e00001003200cd02a90009
:100894000080fa00000006000400fa001007980027
:1008a4001e009000e80f500003003a000040eb00e7
:1008b400004f7800100037009e009000401f200079
:1008c400808f500003003a0060c6b300004f7800e8
:1008d400090037009e00900000022000808f500025
:1008e40003003a0050c5b300004f780002003700ff
:1008f40050c5b300004f780011028000000e2000a4
:100904000100700010028800213a8000f08f2f004f
:1009140000806000203a88001e01fb008007200050
:10092400a1092000337420008049780081497800af
:100934008249780012002000600420007105200024
:100944002374200080497800814978008249780026
:100954004207a80000000000103a80006100600017
:100964000000e000fcff3a0011028000f0f12f00cb
:1009740000806000100288000080fa000000060079
:100984000400fa001007980000fa2000000f780015
:100994001e009000ef0f5000090036009e009000ea
:1009a40060102000808f500005003e00a00f200042
:1009b400000f7800401f2000b7ff07000800370031
:1009c4009e00900060102000808f500004003600cc
:1009d40000012000000f780080002000aeff070017
:1009e40011a1a9001061a90081088000f0fc2f006a
:1009f40000806000800888001021a9000621ef0013
:100a04009e0078001e0090000088b9000000780065
:100a14006008880011e1a80031058000000027006b
:100a2400010070003005880094e0a80084e0a9006b
:100a34000140fe0000fa20009e007800808f5000e4
:100a4400020032008000200093ff07000080fa00bb
:100a5400000006000000fa00d5fe0700e8fe0700cb
:040a6400feff37005a
:020000040000fa
:0200000401f009
:04000000ffffff00ff
:020000040000fa
:0200000401f009
:04000800ffffff00f7
:020000040000fa
:0200000401f009
:04000c0000000000f0
:020000040000fa
:0200000401f009
:040010005300000099
:020000040000fa
:0200000401f009
:0400140040000000a8
:020000040000fa
:0200000401f009
:0400180010000000d4
:020000040000fa
:0200000401f009
:04001c00c20000001e
:020000040000fa
:0200000401f009
:0400200017000000c5
:00000001FF
